:020000040800F2
:10000000100C0020C901000885090008010900083A
:100010002D090008B90200085B200008000000005C
:100020000000000000000000000000008114000833
:100030001903000800000000ED11000895150008E4
:10004000E3010008E3010008E3010008E301000800
:10005000E3010008E3010008E3010008E3010008F0
:10006000E3010008E3010008E3010008E3010008E0
:10007000E3010008E3010008E3010008E3010008D0
:10008000E3010008E3010008E3010008E3010008C0
:10009000E3010008E3010008E3010008E3010008B0
:1000A000E3010008E3010008E3010008E3010008A0
:1000B000E1180008E30100085D190008E3010008E9
:1000C000E3010008E3010008E3010008E301000880
:1000D000E3010008DD1D0008651E0008E3010008BB
:1000E000E3010008E3010008E301000800F002F862
:1000F00000F05AF80AA090E8000C82448344AAF168
:100100000107DA4501D100F04FF8AFF2090EBAE865
:100110000F0013F0010F18BFFB1A43F0010318473B
:10012000AC360000CC3600000A444FF0000C10F84A
:10013000013B13F0070408BF10F8014B1D1108BF65
:1001400010F8015B641E05D010F8016B641E01F805
:10015000016BF9D113F0080F1EBF10F8014BAD1C55
:100160000C1B09D16D1E58BF01F801CBFAD505E073
:1001700014F8016B01F8016B6D1EF9D59142D6D3CD
:10018000704700000023002400250026103A28BFF5
:1001900078C1FBD8520728BF30C148BF0B607047F9
:1001A0001FB51FBD10B510BD00F033F81146FFF7A5
:1001B000F7FF02F0A9F800F051F803B4FFF7F2FFDF
:1001C00003BC01F04CFF0000094880470948004784
:1001D000FEE7FEE7FEE7FEE7FEE7FEE7FEE7FEE7F7
:1001E000FEE7FEE704480549054A064B7047000054
:1001F00099150008ED00000810060020100C0020E2
:1002000010080020100800207047704770477047A2
:100210007047754600F028F8AE460500694653461B
:1002200020F00700854618B020B5FFF7DBFFBDE8DA
:1002300020404FF000064FF000074FF000084FF04D
:10024000000B21F00701AC46ACE8C009ACE8C009DE
:10025000ACE8C009ACE8C0098D4670470446AFF36E
:1002600000802046FFF7A9FF00487047AC0500203A
:100270000EB50020032103460222CDE90010012122
:100280000C4800F03FF90B481030006840F00100C6
:100290000849103108600121082000F0C9FF022040
:1002A000ADF8080028208DF80B0002A9014800F0E5
:1002B00001FA0EBD000C014000BFFEE72DE9FF5F13
:1002C000042001F02FF8019002F0A3FB80460E4AB3
:1002D0000E4B02F005FC064600220D4B02F0E4F93D
:1002E00004460D460B49486802F0EEFD22462B46B7
:1002F000CDE9020102F024F9824602F0EFF8054947
:100300004860BDE8FF9F000066666626E25C3540F7
:1003100000709740D00400207047000070B50C2397
:1003200009A20521002000F081FE0949486802F079
:1003300087FB054602F010FB0446224605213220C9
:1003400000F05EFD70BD0000434F44453A000000E0
:100350001400002038B50C230CA20721002000F067
:1003600065FE0C49486802F0AFFD044602202246B3
:100370000B4607210090302000F068FB0C2306A2FA
:100380000721622000F052FE38BD0000444953416D
:100390003A000000D0040020434D000010B51023A7
:1003A0001DA20021192000F041FE0022114632203A
:1003B00000F0B6FD01220021432000F0B1FD022231
:1003C0000021542000F0ACFD0C2314A203210020D6
:1003D00000F02CFE1348C2780321322000F0CCFC40
:1003E0000C230FA20321412000F020FE0D4842788B
:1003F0000321362000F0C0FC0C2309A20321582061
:1004000000F014FE0748827803213A2000F0B4FC83
:1004100000200449087310BD3130320054494D4565
:100420003A000000D004002000B587B0012104206C
:1004300000F0DEFE0121082000F0FAFEC020ADF839
:10044000000004208DF8030069461C4800F032F9D2
:1004500004A801F079FC0020ADF810004FF6FF7001
:10046000ADF814000020ADF81600ADF8120004A994
:10047000134801F017FC00231A460321104801F02D
:10048000A6FA01A801F02CFB0A20ADF80C0001A986
:100490000B4801F0CFFA0121094801F077FA012257
:1004A0001146074801F025FB0021054801F0CBFB70
:1004B0000021034801F070FA07B000BD000C0140B4
:1004C000000800401CB50121182000F0B1FE4FF4D7
:1004D0004060ADF8040028208DF8070001A9074806
:1004E00000F0E8F84FF40040ADF8000028208DF847
:1004F00003006946024800F0DDF81CBD000C014015
:10050000001001402DE9F0470C461546DDE908676B
:1005100000229446DFF88481404509D1DFF88081CC
:10052000D8F8188048F00408DFF87491C9F81880EA
:10053000DFF87081404509D1DFF86481D8F8188070
:1005400048F00808DFF85891C9F81880DFF858819A
:10055000404509D1DFF84881D8F8188048F01008E4
:10056000DFF83C91C9F81880DFF84081404509D197
:10057000DFF82C81D8F8188048F02008DFF82091A7
:10058000C9F81880DFF82881404509D1DFF81081CB
:10059000D8F8188048F04008DFF80491C9F81880AE
:1005A00005B900BF012D05D117B942F0040201E0E1
:1005B00042F0080206F00308B8F1000F00D103264C
:1005C000022D05D106F0030203F0010842EA880279
:1005D000032D07D106F0030203F0030848F00208D8
:1005E00042EA880200211FE04FF0010808FA01FCEE
:1005F00004EA0C08B8F1000F15D0D0F800804FEADB
:10060000810A4FF00F0909FA0AF928EA0908C0F827
:100610000080D0F800804FEA810902FA09F948EA1F
:100620000908C0F80080491C0829DDD3002121E019
:1006300001F108084FF0010909FA08FC04EA0C0866
:10064000B8F1000F15D0D0F804804FEA810A4FF0BE
:100650000F0909FA0AF928EA0908C0F80480D0F855
:1006600004804FEA810902FA09F948EA0908C0F84A
:100670000480491C0829DBD3012F05D1D0F8108054
:1006800048EA0408C0F81080022F05D1D0F8108085
:1006900048EA0448C0F81080BDE8F087000801402F
:1006A00000100240000C0140001001400014014005
:1006B000001801402DE9F0410246002500260020E7
:1006C00000230024002791F803C00CF00F0591F8D7
:1006D00003C00CF0100CBCF1000F03D091F802C065
:1006E0004CEA050591F800C0BCF1000F31D0146848
:1006F00000202BE04FF0010C0CFA00F3B1F800C021
:100700000CEA03069E4220D183004FF00F0C0CFA36
:1007100003F7BC4305FA03FC4CEA040491F803C058
:10072000BCF1280F06D14FF0010C0CFA00FCC2F806
:1007300014C00AE091F803C0BCF1480F05D14FF096
:10074000010C0CFA00FCC2F810C0401C0828D1D3E0
:100750001460B1F800C0BCF1FF0F34DD5468002014
:100760002EE000F1080C4FF0010808FA0CF3B1F884
:1007700000C00CEA03069E4221D183004FF00F0C0B
:100780000CFA03F7BC4305FA03FC4CEA040491F8A5
:1007900003C0BCF1280F05D100F1080C08FA0CF8D1
:1007A000C2F8148091F803C0BCF1480F07D100F1E2
:1007B000080C4FF0010808FA0CF8C2F81080401C31
:1007C0000828CED35460BDE8F0810246002093682B
:1007D0000B400BB1012000E00020704741617047E1
:1007E0000161704740F6B8300949088008490C3962
:1007F000088000200749086001200749C1F8B401BA
:1008000004490831086000200349C1F8BC01704761
:10081000402C0140B08121420080214240F6B83096
:100820000949088008490C390880012007490860F7
:1008300000200749C1F8B4010449083108600120CB
:100840000349C1F8BC017047402C0140B0812142EE
:10085000008021424FF4FA600A49088009490C39A6
:10086000088001200849086000200849C1F8B40147
:10087000012005490831086000200449C1F8BC0185
:1008800070470000402C0140B0812142008021428D
:1008900040F6C4100949088008490C390880002036
:1008A0000749086001200749C1F8B401044908312B
:1008B000086000200349C1F8BC017047402C01408A
:1008C000B08121420080214240F6C41009490880CD
:1008D00008490C39088001200749086000200749B1
:1008E000C1F8B40104490831086001200349C1F886
:1008F000BC017047402C0140B08121420080214260
:1009000000BFFEE71CB50020032103460222CDE90B
:10091000001011030448FFF7F5FD0348006940F09B
:100920000050014908611CBD0010014000BFFEE7F6
:1009300008B50121082000F07BFC4FF20400ADF85F
:10094000000010208DF8030003208DF80200694696
:100950000948FFF7AFFE0120084908600020084958
:10096000C1F8B4010120054908310860002004499C
:10097000C1F8BC0108BD0000000C0140B08121425B
:10098000008021427047000070B5002100230F2233
:10099000C47804B3154C246804F4E064C4F5E0643E
:1009A000210AC1F10403CA40447804FA03F18478AF
:1009B0001440214309010E4C0678A155047804F037
:1009C0001F050124AC4005786D11AD0005F1E0254F
:1009D000C5F8004109E0047804F01F050124AC408B
:1009E000044D0678761145F8264070BD0CED00E008
:1009F00000E400E080E100E002490143024A1160A6
:100A0000704700000000FA050CED00E070B500240E
:100A100018E004F1B000002100F023FB002108469B
:100A200000F01FFB0021102000F01BFB002505E05B
:100A30000121002000F015FB681CC5B2802DF7DBFA
:100A4000601CC4B2082CE4DB70BD00002DE9FF5F20
:100A500086B014461D46DDF850B0012005900020F8
:100A60000290039004904FF00109002600BF8246D7
:100A7000002213462046294601F0F6FF09D285F0F0
:100A80000040CDE900402046019901F065FF06468F
:100A900004E02046294601F05FFF0646304601F09B
:100AA000B8FF22462B46CDE9000102F017F90746B0
:100AB000884600224D4B3846414602F011F8CDE9F8
:100AC000000101F079FF824607E009EB89004FEA57
:100AD00040090598401CC0B205900A2096FBF0F032
:100AE00090FBF9F00028F0D142F2107096FBF0F084
:100AF0000A2190FBF1F201FB1200C0B28DF8080050
:100B00004FF47A7096FBF0F090FBF1F201FB1200CB
:100B1000C0B28DF80900642096FBF0F090FBF1F272
:100B200001FB1200C0B28DF80A000A2096FBF0F01B
:100B300090FBF1F201FB1200C0B28DF80B000A200D
:100B400096FBF0F100FB1160C0B28DF80C002E2076
:100B50008DF80D004FF47A70BAFBF0F00A21B0FB6B
:100B6000F1F201FB12008DF80E006420BAFBF0F0E8
:100B7000B0FBF1F201FB12008DF80F000A20BAFB66
:100B8000F0F0B0FBF1F201FB12008DF810000A202A
:100B9000BAFBF0F100FB11A08DF8110000210BF160
:100BA000060002AA1154894608E002A810F80900BC
:100BB000303002A901F8090009F10109B9F10A0F61
:100BC000F3DB2E208DF80D0000210BF1060002AAA8
:100BD00011540598C0F1050002A942180C23DDE963
:100BE000060100F023FA0AB0BDE8F09F0088C34078
:100BF00010B54FF480710948FFF7F2FD4FF4007112
:100C00000648FFF7EDFD4FF400710448FFF7E6FDDD
:100C10004FF480710148FFF7E1FD10BD000C014069
:100C200010B54FF480710748FFF7DAFD4FF40071FB
:100C30000448FFF7D3FD4FF400710248FFF7D0FDE1
:100C400010BD0000000C014010B54FF48071044845
:100C5000FFF7C6FD4FF480710148FFF7BFFD10BDDF
:100C6000000C014008B50121082000F0E1FA4FF422
:100C70004070ADF8000010208DF8030003208DF8BF
:100C8000020069463B48FFF715FD4FF440713948B3
:100C9000FFF7A6FD642001F007FA0021AE2000F066
:100CA000E0F90021084600F0DCF90021102000F0F6
:100CB000D8F90021402000F0D4F90021B02000F044
:100CC000D0F90021812000F0CCF90021FF2000F0B4
:100CD000C8F90021A12000F0C4F90021A62000F0ED
:100CE000C0F90021A82000F0BCF900213F2000F04D
:100CF000B8F90021C82000F0B4F90021D32000F099
:100D0000B0F90021084600F0ACF90021D52000F030
:100D1000A8F90021802000F0A4F90021D82000F0DB
:100D2000A0F90021052000F09CF90021D92000F055
:100D300098F90021F12000F094F90021DA2000F068
:100D400090F90021122000F08CF90021DB2000F046
:100D500088F90021302000F084F900218D2000F076
:100D600080F90021142000F07CF90021AF2000F070
:100D700078F908BD000C01402DE9F0470546894689
:100D800016463446002C1DDA6442642094FBF0F1D0
:100D900000FB11400A2190FBF1F0C7B20A2094FB3E
:100DA000F0F100FB114000F0FF08691CC8B23A46A0
:100DB000494600F07FF8A91CC8B24246494600F0F7
:100DC00079F81BE0642094FBF0F100FB11400A214C
:100DD00090FBF1F0C7B20A2094FBF0F100FB114048
:100DE00000F0FF08691CC8B23A46494600F062F8B4
:100DF000A91CC8B24246494600F05CF8BDE8F0873D
:100E00002DE9F04705468A4616463446002C28DA76
:100E100064420A2094FBF0F100FB1140C7B20A20A3
:100E200094FBF0F00A2190FBF1F201FB120000F0BC
:100E3000FF08642094FBF0F000F0FF09E91CC8B241
:100E40003A46514600F036F8A91CC8B2424651460F
:100E500000F030F8691CC8B24A46514600F02AF842
:100E600026E00A2094FBF0F100FB1140C7B20A20F3
:100E700094FBF0F00A2190FBF1F201FB120000F06C
:100E8000FF08642094FBF0F000F0FF09E91CC8B2F1
:100E90003A46514600F00EF8A91CC8B242465146E7
:100EA00000F008F8691CC8B24A46514600F002F842
:100EB000BDE8F0872DE9F04105460F46164600BF14
:100EC00005EB45014906080E394600F015F80024E7
:100ED0000BE006F1100101EB4101064A02EB410172
:100EE000085D012100F0BDF8641C062CF1DBBDE8B3
:100EF000F0810000B42F000870B504460D4605F1DE
:100F0000B000002100F0ADF8102141EA14100021DA
:100F100000F0A7F804F00F00002100F0A2F870BD67
:100F20002DE9F04180460E461546002731464046E1
:100F3000FFF7E2FF00240AE0124A02EB8511085D88
:100F4000012100F08EF8781CC7B2601CC4B2102CCE
:100F5000F2DB701CC1B24046FFF7CEFF00240CE06C
:100F60006900491C074A02EB4111085D012100F0AC
:100F700078F8781CC7B2601CC4B2102CF0DBBDE856
:100F8000F0810000300000202DE9F04707460E46B2
:100F90009046994600250024A8F12000C5B27F2F75
:100FA00002DD0027B01CC6B2B9F1100F24D13146C2
:100FB0003846FFF7A1FF002408E004EB0511194AA9
:100FC000505C012100F04DF8601CC4B2082CF4DB29
:100FD000701CC1B23846FFF78FFF002409E004EB14
:100FE000051108310F4A505C012100F03AF8601CED
:100FF000C4B2082CF3DB12E031463846FFF77CFF21
:1010000000240AE005EB4501074A02EB4101085DB7
:10101000012100F026F8601CC4B2062CF2DBBDE80A
:10102000F0870000DC310008B42F00082DE9F04102
:1010300005460E4614461F460EE022783B463146D2
:101040002846FFF7A1FF05F10800C5B2782D02DDA3
:101050000025B01CC6B2641C20780028EDD1BDE884
:10106000F08170B504460D461DB1E0B200F04AF8BB
:1010700002E0E0B200F030F870BD00002DE9F04170
:1010800005462C464FF480711248FFF7A7FB002657
:101090001CE0274607F08007802F04D1B9000D48D7
:1010A000FFF79EFB04E04FF400710A48FFF796FB40
:1010B0006006040E4FF480710648FFF791FB4FF471
:1010C00080710448FFF78AFB701CC6B2082EE0DB73
:1010D000BDE8F081000C014010B50446FFF788FD23
:1010E0007820FFF7CBFFFFF7AFFD0020FFF7C6FF2B
:1010F000FFF7AAFD2046FFF7C1FFFFF7A5FDFFF7A9
:101100008FFD10BD10B50446FFF772FD7820FFF784
:10111000B5FFFFF799FD4020FFF7B0FFFFF794FD03
:101120002046FFF7ABFFFFF78FFDFFF779FD10BDFE
:101130002A490A780978491C284B1970284988548B
:1011400019460978012909D125490978254A1278D3
:10115000914203D000211A46117070471F49097847
:10116000022909D11E4949781E4A5278914203D07A
:1011700000211A4A1170F0E718490978032909D1AA
:1011800017498978174A9278914203D00021134A6F
:101190001170E2E711490978082909D11049C97984
:1011A000104A5279914203D000210C4A1170D4E7C1
:1011B0000A490978082900DACFE70B49084A9288DA
:1011C0000A804978084A127841EA0221064A5160A9
:1011D0000021024A117000BFBFE700002A00002072
:1011E0001C00002024000020140000207047000094
:1011F00029B1064AD2690243044BDA6104E0034A8A
:10120000D2698243014BDA6170470000001002404E
:1012100029B1064A12690243044B1A6104E0034AE9
:1012200012698243014B1A617047000000100240AE
:1012300029B1064A92690243044B9A6104E0034AC9
:1012400092698243014B9A6170470000001002408E
:1012500030B500210022002400232D4D6D6805F0DB
:101260000C0121B1042905D0082923D105E0294D1D
:10127000056022E0274D05601FE0254D6D6805F4EF
:101280007012234D6D6805F48034022505EB9242FF
:101290001CB9214D554305600BE01D4D6D6805F4EB
:1012A00000351DB11C4D5543056002E0194D5543F5
:1012B000056002E0174D056000BF00BF144D6D686A
:1012C00005F0F0010909154D6B5C0568DD404560CE
:1012D0000F4D6D6805F4E061090A104D6B5C4568BF
:1012E000DD4085600A4D6D6805F46051C90A0B4DFB
:1012F0006B5C4568DD40C560054D6D6805F4404197
:10130000890B074D6B5CC568B5FBF3F5056130BD16
:101310000010024000127A0000093D00BA040020CB
:10132000CA0400200146022904D003290BD0042955
:1013300017D10FE04FF08042928C10B200224FF094
:1013400080439A840FE0094A128810B20022074BAA
:101350001A8008E0064A128810B20022044B1A8054
:1013600001E0002000BF00BF7047000024040040DF
:101370002408004010B500243C48406818B33C489D
:10138000006800BB3B48006840F480303949086081
:101390003948006940F00050374908614FF4FA704D
:1013A00000F082FE3448C06880F400503249C860C2
:1013B0003048001F006880F001002E49091F0860B6
:1013C00001202B49086002212A481038FFF7FDF957
:1013D00020BB1CBB2948407B401C2849487325483A
:1013E000006840F48030234908602348006940F0D9
:1013F0000050214908614FF4FA7000F055FE1E4874
:10140000C06880F400501C49C8601A48001F00687A
:1014100080F001001749091F086001241748007C6B
:10142000012822D10CBB1348006840F480301149D8
:1014300008601148006940F000500F4908614FF4FE
:10144000FA7000F031FE0C48C06880F400500A4980
:10145000C8600848001F006880F001000549091FA6
:101460000860012400200549087410BD1400002004
:101470002C000020100C014000100140D00400207E
:10148000704710B500F002F810BD00000CB5002048
:10149000019000903348006840F480303149086082
:1014A00000BF3048006800F4003000900198401CF4
:1014B0000190009818B90198B0F5A06FF1D12948B2
:1014C000006800F4003010B10120009001E000201D
:1014D00000900098012843D12348006840F0100094
:1014E000214908600846006820F0030008600846AB
:1014F000006840F0020008601A48406819494860D6
:101500000846406848600846406840F4806048608B
:101510000846406820F47C1048600846406840F463
:10152000E81048600846006840F08070086000BF1E
:101530000C48006800F000700028F9D009484068A5
:1015400020F00300074948600846406840F0020068
:10155000486000BF0348406800F00C000828F9D13B
:101560000CBD00000010024000200240042808D1F9
:101570004FF0E021096941F004014FF0E0221161D0
:1015800007E04FF0E021096921F004014FF0E0226B
:10159000116170477047000010B51348006840F0B3
:1015A00001001149086008464068104908400E498A
:1015B0004860084600680E4908400B490860084624
:1015C000006820F4802008600846406820F4FE008F
:1015D00048604FF41F008860FFF753FF4FF0006032
:1015E0000449086010BD0000001002400000FFF830
:1015F000FFFFF6FE08ED00E0F0B50C4615460022B0
:101600000021068C4FF6FE773E400684028B018C4B
:101610004FF60C7632407E1C06EA03162E43324308
:10162000104EB0420ED0104EB0420BD0B0F1804FF1
:1016300008D00E4EB04205D00D4EB04202D00D4E35
:10164000B04206D14FF6FD76314044F001063143F9
:1016500005E04FF6F576314044F001063143028350
:101660000184F0BD002C0140003401400004004022
:1016700000080040000C0040F0B50C461546002262
:1016800000210026078C4FF6EF7C07EA0C07078441
:10169000028B018C4FF6FF7707EA041640F6FF47EE
:1016A0003A404FF6FF7707EA03373A434FF6FF77A2
:1016B00007EA05273A43114FB8420ED0104FB842FF
:1016C0000BD0B0F1804F08D00E4FB84205D00E4F6E
:1016D000B84202D00D4FB84206D14FF6DF773940FD
:1016E00046F01007394305E04FF65F77394044F084
:1016F0001007394302830184F0BD0000002C014033
:10170000003401400004004000080040000C00408C
:10171000F0B50C461546002200210026078C4FF636
:10172000FF6C07EA0C070784828B018C4FF6FF776A
:1017300007EA04264FF60C773A404FF6FF7707EAA0
:1017400003172F433A43114FB8420ED0104FB842FF
:101750000BD0B0F1804F08D00E4FB84205D00E4FDD
:10176000B84202D00D4FB84206D14FF6FF5739406C
:1017700046F48077394305E04FF2FF57394044F48F
:101780008077394382830184F0BD0000002C014042
:10179000003401400004004000080040000C0040FC
:1017A000F0B50C461546002200210026078C4EF6A7
:1017B000FF7C07EA0C070784828B018C4FF6FF77CA
:1017C00007EA043640F6FF473A404FF6FF7707EA4C
:1017D00005273A434FF6FF7707EA03373A43114F9D
:1017E000B8420ED0104FB8420BD0B0F1804F08D0A5
:1017F0000E4FB84205D00E4FB84202D00D4FB8423E
:1018000006D14DF6FF77394046F48057394305E05D
:1018100047F6FF57394044F48057394382830184A7
:10182000F0BD0000002C01400034014000040040E5
:1018300000080040000C004030B589B005460C4659
:101840000121C802FFF7F4FC01210420FFF7F0FC9E
:101850004FF41060ADF8200018208DF8230003200D
:101860008DF8220008A91C48FEF724FFADF8185097
:10187000ADF814400020ADF81A00ADF8160005A927
:10188000164800F00FFA6020ADF804000120ADF812
:1018900006000020ADF80A00ADF80C0001A90F48C1
:1018A00000F086F901A90D4800F02CF901210B4840
:1018B00000F07EF80821094800F070F90821074877
:1018C00000F0B4F90121054800F054F80121034863
:1018D00000F062F809B030BD00080140002C014062
:1018E00010B50121880700F093F8002830D00120BE
:1018F000184908730121800700F04BF8154800785B
:10190000401C14490870084600780A2820DB124859
:10191000C06880F400501049C86000200D4908706C
:1019200008468078401C8870084680783C280FDB89
:101930000020887008464078401C4870084640786F
:101940003C2805DB002048700846C078401CC87061
:1019500010BD0000D00400200010014004480088A1
:101960000348008820F0010001490880704700000A
:101970001008004021B1028842F08002028004E099
:1019800002884FF67F731A4002807047CA43028272
:101990007047CA430282704721B1028842F00102B7
:1019A000028004E002884FF6FE731A4002807047FE
:1019B00031B1B0F8442042F40042A0F8442005E0E0
:1019C000B0F84420C2F30E02A0F844207047F0B5EE
:1019D0000C4615461E460021002200230189028B79
:1019E000038C4FF6F877394021434FF6FC473A40D5
:1019F00040F201173A434FF6DD773B404FF6FF7751
:101A000007EA06172F433B43018102830384F0BD9D
:101A100030B50246002000230024158A05EA0103A0
:101A2000958905EA010413B10CB1012000E0002002
:101A300030BD000070B505460C46244885420ED0E6
:101A4000234885420BD0B5F1804F08D0214885420C
:101A500005D02148854202D02048854200D100E0CF
:101A600000BF208850B92389A28861882846FFF7E3
:101A7000C3FDE188284600F0E8F825E02088042826
:101A80000AD12389A28861882846FFF7F5FDE188FD
:101A9000284600F0E3F817E0208808280AD12389B7
:101AA000A28861882846FFF733FEE188284600F0C7
:101AB000E2F809E02389A28861882846FFF770FED2
:101AC000E188284600F0E0F870BD0000002C0140DD
:101AD000003401400004004000080040000C0040B9
:101AE000002101804180012181800021C18001818C
:101AF00070471AB183890B43838102E083898B434A
:101B00008381704770B5002400220023058C4FF6B6
:101B1000FE7635400584028C8388048B4FF68F75E2
:101B20002C40B51E2C400D882C43751E2A400D8973
:101B30002A434D882A43144DA8420BD0134DA84286
:101B400008D0134DA84205D0124DA84202D0124D24
:101B5000A84213D14FF6F7752A404D892A434FF614
:101B6000FB752A408D882A434FF6FF652B404FF6C0
:101B7000FF552B408D892B43CD892B4383800483D4
:101B8000CD888586028470BD002C01400034014060
:101B90000040014000440140004801400A46002145
:101BA000018B4FF6F7731940114301837047000012
:101BB00070B5002200230024058C4EF6FF763540D8
:101BC0000584038C8488828B48F6FF752A404FF683
:101BD000FF452A400D884FF6FF7606EA05252A4381
:101BE0004DF6FF752B400D8906EA05352B434D88D0
:101BF00006EA05352B430B4DA84202D00A4DA842F8
:101C000008D14BF6FF752C408D894FF6FF7606EA1A
:101C100085152C4384808283CD88A0F840500384AE
:101C200070BD0000002C0140003401400A46002134
:101C3000818B4FF2FF7319404FF6FF7303EA0223C3
:101C400019438183704781847047028B4FF6F37389
:101C50001A400283028B0A4302837047028B4FF2C1
:101C6000FF331A400283028B4FF6FF7303EA01230E
:101C70001A4302837047828B4FF6F3731A408283B4
:101C8000828B0A4382837047828B4FF2FF331A4064
:101C90008283828B4FF6FF7303EA01231A43828308
:101CA00070470000002202881D4B98420ED01D4B49
:101CB00098420BD0B0F1804F08D01B4B984205D012
:101CC0001A4B984202D01A4B984204D14FF68F73A8
:101CD0001A404B881A43174B984207D0164B98422C
:101CE00004D04FF6FF431A40CB881A4302808B88FA
:101CF00083850B8803850A4B98420BD0094B984289
:101D000008D00E4B984205D00D4B984202D00D4B97
:101D1000984201D10B7A0386012383827047000029
:101D2000002C014000340140000400400008004045
:101D3000000C004000100040001400400040014032
:101D400000440140004801404FF6FF7181800021AE
:101D50000180C1804180017270477FB505460C4605
:101D600001210846FFF744FAADF80850ADF80440E9
:101D70000020ADF80A00ADF8060001A94FF0804040
:101D8000FFF790FF012211469007FFF7B2FE1C20DB
:101D90008DF8000002208DF8010000208DF802006F
:101DA00001208DF803006846FEF7EEFD00214FF09C
:101DB0008040FFF7F1FD7FBD00200649086006491D
:101DC000C1F8B4010349083108600349C1F8BC01F6
:101DD00070470000B08121420080214210B540F2DE
:101DE00025511D4800F079F810B31B4800F030F978
:101DF000C4B21A48008800F40040C8B917480088E7
:101E000000F4804060B10A2C03D000201349088000
:101E100020E01248008840F400401049088019E092
:101E20000D2C06D10D48008840F480400B490880F5
:101E300010E00A480088C0F30D0009490C54074817
:101E40000088401C0549088008460088C72801DD35
:101E50000020088010BD000000380140B8040020B8
:101E6000E404002010B540F227710D4800F035F869
:101E7000A8B940F225510A4800F02FF878B1084877
:101E8000001D0088064800880549091D0988C8B258
:101E9000FFF74EF940F22551014800F003F810BD5C
:101EA0000044004010B50022002340F66A14A1420D
:101EB00000D100BF0A1201249440A3B2DC43048085
:101EC00010BD21B1828942F40052828104E08289EE
:101ED0004DF6FF731A408281704770B502460024A8
:101EE00000230025002040F66A16B14200D100BF51
:101EF000C1F3421501F01F03012606FA03F3012D79
:101F000002D19689334006E0022D02D1168A334071
:101F100001E0968A33400C12012606FA04F4168872
:101F2000344013B10CB1012000E0002070BDF0B5C9
:101F30000346002400260025002040F66A17B94217
:101F400000D100BF1846C1F3421401F01F0601275B
:101F500007FA06F5012C01D10C3004E0022C01D166
:101F6000103000E014301AB107682F43076002E018
:101F70000768AF430760F0BD2DE9F04786B005461E
:101F80000E460024A24600BFA1460027B08900B13A
:101F900000BF2F462C8A4CF6FF700440F0880443A3
:101FA0002C82AC894EF6F3100440B0883189084386
:101FB000718908430443AC81AC8A4FF6FF4004406A
:101FC000B0890443AC8201A8FFF742F91F48874259
:101FD00002D1DDF810A001E0DDF80CA0A88900F422
:101FE000004040B10AEBCA0000EB0A10316849001A
:101FF000B0FBF1F807E00AEBCA0000EB0A10316809
:102000008900B0FBF1F86420B8FBF0F0040120096E
:10201000642101FB1089A88900F4004040B13220FE
:1020200000EBC900B0FBF1F000F00700044308E04A
:10203000322000EB09106421B0FBF1F000F00F003A
:1020400004432C8106B0BDE8F08700000038014051
:1020500001468888C0F30800704700BFFEE70146CC
:1020600000BF704710B56FF00400FFF77FFA0A4811
:1020700000680A49B0FBF1F0094908700846007889
:1020800000EB4001C1EBC0104FF6FF7101EAC00048
:102090000449088010BD00000000002000127A00F2
:1020A000B0040020B20400200146114A12884A43BD
:1020B0004FF0E0235A6100229A611A46126942F0F9
:1020C00001021A6100BF4FF0E022106900F0010226
:1020D0001AB100F48032002AF5D04FF0E0221269E4
:1020E00022F001024FF0E0231A6100229A6170474A
:1020F000B204002010B50648007B012807D1FEF786
:1021000029F9FEF70BF9FEF749F9FEF7D7F810BDEC
:10211000D004002008B501211420FFF789F8F02031
:10212000ADF8000048208DF8030069460148FEF72D
:10213000C1FA08BD0008014010B510217048FEF733
:1021400044FBA0B920216E48FEF73FFB78B940213F
:102150006B48FEF73AFB50B980216948FEF735FB22
:1021600028B901206749C873FEF774FBC7E0102146
:102170006348FEF72AFB90B920216148FEF725FB52
:1021800068B940215E48FEF720FB40B980215C48D9
:10219000FEF71BFB012802D1FEF740FBAFE0102148
:1021A0005748FEF712FB90B920215548FEF70DFB6A
:1021B00068B940215248FEF708FB012807D1802169
:1021C0004F48FEF702FB10B9FEF77EFB97E01021A7
:1021D0004B48FEF7FAFA90B920214948FEF7F5FA84
:1021E00001280CD140214648FEF7EFFA38B980218A
:1021F0004348FEF7EAFA10B9FEF74AFB7FE01021E8
:102200003F48FEF7E2FA012811D120213C48FEF7B1
:10221000DCFA60B940213A48FEF7D7FA38B9802194
:102220003748FEF7D2FA10B9FEF7DCFA67E0102162
:102230003348FEF7CAFA012812D120213048FEF7B0
:10224000C4FA01280CD140212D48FEF7BEFA38B956
:1022500080212B48FEF7B9FA10B9FEF7C3FA4EE019
:1022600010212748FEF7B1FA98B920212448FEF73B
:10227000ACFA70B940212248FEF7A7FA012808D12C
:1022800080211F48FEF7A1FA012802D1FEF7C6FA05
:1022900035E010211A48FEF798FA012813D12021C1
:1022A0001748FEF792FA01280DD140211448FEF795
:1022B0008CFA012807D180211148FEF786FA10B95F
:1022C000FEF790FA1BE010210D48FEF77EFAA0B948
:1022D00020210B48FEF779FA01280ED14021084849
:1022E000FEF773FA012808D180210548FEF76DFA40
:1022F000012802D1FEF792FA01E0FEF7ABFA10BD19
:1023000000080140D0040020FFF7ACFEFEF7FAFA07
:102310004FF44070FEF770FBFEF786F84FF4E130A3
:1023200000F084F8FEF79EFCFEF770FB41F61F41BB
:1023300040F2E730FFF711FD002141F61F40FFF7A3
:102340007BFAFEF7F5FAFFF7E5FEFDF791FFFEF7E2
:10235000B9F85DE0FFF70EF8FFF7CCFE10212D482D
:10236000FEF733FA01282ED120212A48FEF72DFA54
:10237000012828D140212748FEF727FA012822D139
:1023800080212448FEF721FA01281CD12248807BB5
:10239000C043214988730120087440F6D8601F4962
:1023A00008801E490C39088001201D490860002062
:1023B0001C49C1F8B4010120194908310860002006
:1023C0001849C1F8BC011448407B01280BD10121F8
:1023D0001548FFF7E1FA01218807FFF7DDFA002031
:1023E0000D4988730AE00C48407B022806D1FFF7AC
:1023F000E3FC00214FF08040FFF7CEFA0648407B17
:10240000002805DB0448407B012801DCFFF794FE2F
:10241000A0E7000000080140D0040020402C01404B
:10242000B0812142008021420008004010B586B0F2
:10243000044601210420FEF7FBFE01214804FEF7BB
:10244000D7FE0420ADF8140018208DF8170005A958
:102450002048FEF72FF90820ADF8140004208DF86D
:10246000170005A91B48FEF725F901214804FEF7CE
:10247000CFFE00214FF40030FEF7CAFE26208DF873
:10248000000001208DF8010000208DF802000120DD
:102490008DF803006846FEF777FA01940020ADF846
:1024A0000800ADF80A00ADF80C00ADF810000C20E3
:1024B000ADF80E0001A90848FFF75EFD012240F2C9
:1024C00025510548FFF733FD01210348FFF7F9FCCB
:1024D00006B010BD000801400044004021F0004259
:1024E000A2F16052B2F5801F01F0004328BFD2F183
:1024F0007F6C0BD95FEA001C43EAC20242EB5070CA
:1025000018BF704728BF20F001007047B2F5801F48
:10251000BCBF184670474FEA410C1CF5001F02D2A1
:10252000084600F042BD70B500F084FB0000008951
:10253000FFF7F6BF4FF00040A0F5800070470000A5
:1025400010B591EA030F48BF83F0004300F1DA832E
:10255000841A71EB030C05D2121943EB0C03001B18
:1025600061EB0C01DFF824E14FEA1154A4EB135C9A
:102570001EEA430F18BF9EEA445F73D023EA0E039E
:10258000DCF1200E21EA045143F4801332D322FA05
:102590000CFE10EB0E0023FA0CFE41EB0E01CCF109
:1025A000200E03FA0EFE10EB0E0051F10001B1F502
:1025B000801FCCF1200E32D201EB045112FA0EF240
:1025C000BDE8104058BF7047401C38BF5FEA420268
:1025D00018BF7047002814BF20F0010041F100012E
:1025E0004FEA410313F5001F38BF7047A1F1C04106
:1025F00000F06EBB012A43EB0302ACF1200CDCF1CE
:102600001F0E32BF4FF0000E23FA0CF310EB030045
:1026100041EB0451B4EB115FD0D0A1EB045101F5B3
:10262000801149085FEA300001EB04510ED350F1EC
:10263000000038BF12FA0EFE08D1BDE81040C9E70D
:10264000401C38BF5FEA4202CAD1C3E7BDE8104070
:102650004FEA410313F5001F38BF7047A1F1C04195
:1026600000F036BB9EEA445F08D011EA5E0FBDE879
:10267000104004BF01F0004100207047BDE8104049
:1026800070B500F0D7FA00BF64FBBE3E0000E0FF6B
:10269000491058BFC1F140415B1058BFC3F14043DE
:1026A0008B42EFF3008070472DE9C04130B4DFF872
:1026B000A0C23CEA111418BF3CEA131400F0EC80ED
:1026C00081EA03051CEA111444EAD57418BF1CEA18
:1026D000131500F0C780A4EB05044FF0004545EA50
:1026E000C12145EAC32341EA505143EA525304F160
:1026F0007F74994204F500344FEAC0204FEAC222A9
:1027000008BF904200F09C804FEA13650FF240161C
:10271000765D4FEA134506FB05F7C7F1807706FBA8
:1027200007F74FEAD737A7FB03687642C8F580382A
:10273000A7FB06CE38BFA8F1010807FB08E64FF05B
:10274000000EA6FB028CE6FB03CEDCF1000CCEF102
:10275000004E38BFAEF1010EA6FB0C584FF000073B
:102760004FF00005E6FB0E87A1FB08C6A0FB07CED5
:1027700016EB0E0645F10005E1FB076515F1E04E8D
:102780007EBFA4F580345FEA46066D4116F18007EE
:1027900045F100054FEA17274FEA066647EA056745
:1027A000A6F1DE46B6F1805F4FEA15251FD93846FF
:1027B00024F0010C05EBC471BCF1FE6F01EB0C11B0
:1027C00002D8F0BCBDE8008124425CBF01F5801E48
:1027D0009EEAC47F02D4F0BCBDE80081244238D414
:1027E000F0BCA1F1C041BDE8004100F071BA4FEA70
:1027F000D22242EA43524FEAD323A7FB02864FEA92
:10280000D02040EA415007FB03661EEA0E0F4FEA54
:10281000D12105FB026658BFA6EB0056B6EB005669
:102820004FEA520E4EEAC37E18EB0E0E56EB530ED5
:10283000BDD518EB02085E417F1C55F10005B6E7D7
:102840004FF480154FF000074FF000064FF00008DE
:10285000ADE7F0BC4FF0000001F1C04101F00041D4
:10286000BDE8008111EA0C1F0CEA131500D00CE042
:1028700013EA0C1F00F025804FF00000F0BC81EA45
:10288000030101F00041BDE80081F0BCBDE800415A
:1028900081EA030100F01CBAF0BCBDE8004170B54C
:1028A00000F0C8F9097EFC3E00F007B881EA030198
:1028B0004FF0000001F00041704781EA030100F091
:1028C00007BAF0BCBDE800414FF000002149704755
:1028D000FFFDFBF9F7F5F4F2F0EEEDEBE9E8E6E4E5
:1028E000E3E1E0DEDDDBDAD8D7D5D4D3D1D0CFCD6C
:1028F000CCCBCAC8C7C6C5C4C2C1C0BFBEBDBCBBA5
:10290000BAB9B8B7B6B5B4B3B2B1B0AFAEADACAB9F
:10291000AAA9A8A8A7A6A5A4A3A3A2A1A09F9F9E79
:102920009D9C9C9B9A99999897979695959493932B
:10293000929191908F8F8E8E8D8C8C8B8B8A8989C2
:102940008888878786858584848383828281818045
:102950000000FF070000F87F4FEA41034FEA53539E
:10296000A3F58063D3F11E03C8BFD3F1210C0CDDA6
:102970004FF0004242EAC12242EA505232FA03FCCE
:102980008CEAE17CACEBE1707047102BC4BF0020F7
:10299000704703F5787CBCF1FF3F04D06FF0004234
:1029A00082EA2100704770B500F044F94992248012
:1029B00000207047F2E700004FEA1153A3F580634F
:1029C000D3F11E03A8BFD3F1200C08DB4FF0004267
:1029D00042EAC12252EA505232FA03F070470942E9
:1029E0000BD4102BC4BF0020704703F5787CBCF1DA
:1029F000FF3F05D04FF0FF3070474FF000007047A9
:102A000070B500F017F900BF49922480002070478C
:102A1000F0E710F0004248BF4042B0FA80F310FAED
:102A200003F10AD0C3F11D0303F580634FEA41505F
:102A300002EB035202EBD12170474FF000007047C8
:102A4000B0FA80F310FA03F10AD0C3F11D0303F5C5
:102A500080634FEA41504FEA035202EBD1217047A5
:102A60004FF000007047000051EA030C17D41CF52A
:102A7000801F58BFBCF5801F00F10680994218BF27
:102A8000704708BF9042704707D711F5801F58BFA5
:102A900013F5801F19D499427047894270471CF57D
:102AA000801F08D5BCF5801FF7D58B4218BF704733
:102AB00008BF824270474FF4001C1CEB410F38BF27
:102AC0001CEB430F01D28B42704770B500F0B2F897
:102AD000922449004FF000514FF08053FFF7D8BDCA
:102AE000DFF848C170B51CEA111E1EBF1CEA1315A1
:102AF0009EEA0C0F95EA0C0F00F06F8081EA030448
:102B000023EA4C134EEAD47E21EA4C1141F48011A1
:102B100043F48013AE44A1FB024CA0FB0365AEF16D
:102B20007F7E361955EB0C05A1FB034C4CF10003DD
:102B3000A0FB021C16EB0C06654153F10003094291
:102B400018BF46F0010613F4007F0BD14FEA0331A2
:102B50004FEA0530340341EA155140EA16506FF050
:102B600003020AE04FEAC3214FEAC520F40241EA1A
:102B7000555140EA56506FF0020202EB2E4201EB33
:102B8000025585EACE710AD05FEA440C18BF24F0E2
:102B9000004450F1000041F1000120EAD47040F2FD
:102BA000FE7C624500D270BDA84214BF4FF0804445
:102BB0004FF04044002E08BF0024BEF1806FA8BF34
:102BC000A1F1C041BDE8704080F282804FF000006A
:102BD00001F1C04101F0004170479EEA0C0F0CEA80
:102BE000131518BF95EA0C0F06D04FF0000081EACC
:102BF000030E0EF0004170BD00F01CF88900013E8C
:102C000000F007B800F009B84FEA430C5FEA5C5CDB
:102C100008D081EA030100F05BB84FEA410C5FEA9B
:102C20005C5CF6D14FF00000014970470000FF07DF
:102C30000000F87F0EF1020E2EF0030E5EF8046B1A
:102C4000364205D4012A43EB030515F5001F12D8BF
:102C5000012841EB010C1CF5001F0CD80ED14FEAE6
:102C6000D17C15F5001F0CEB4C0C0CF1020C08BFCD
:102C70004CEBD37C04E04FF0080C01E04FEAD37C2E
:102C80000CEB4C0526FA05F606F00706B6F1040C27
:102C900006D20EEB860CBDE870404CF0010C60478C
:102CA000DFE80CF0090B02024FF000414FF000008A
:102CB000A1F5002170BD19461046012851EB010411
:102CC00018BFD4F5001484BF002001F0004170BD8E
:102CD0000808A0F500114FEA3101704791EA030F8F
:102CE00010B581F000413FF533AC83F0004300F0B4
:102CF00009B8000010B591EA030F48BF83F0004304
:102D00003FF526AC841A71EB030C07D212198CF034
:102D1000004C43EB0C03001B61EB0C01DFF8A4E15A
:102D20004FEA1154A4EB135C1EEA430F18BF9EEA4E
:102D3000445F00F0B08023EA6E03524221EA04515E
:102D4000C3EB6E0338BF5B1EDCF1200E25D322FAE5
:102D50000CFE10EB0E0043FA0CFE41EB0E01CCF121
:102D6000200E03FA0EFE10EB0E0051F10001CCF123
:102D7000200E29D412FA0EF201EB0451BDE81040E6
:102D800058BF7047401C1CBFB2F1004F704700286D
:102D90000CBF491C20F00100704712EB020E43EB00
:102DA000030218BF4FF0010E4EEA4202ACF1200CB4
:102DB000DCF11E0E54D943FA0CFE10EB0E0051F15B
:102DC000FF31CCF11E0ED5D50EF1010E12FA0EFE1A
:102DD000404141EB010101EB445C5FEA5C5C10D9CE
:102DE00010EBDE7001EB045138BFBEF1004FBDE8BF
:102DF000104018BF704700280CBF491C20F001008C
:102E0000704730D24FEAD42C11F5001124F400643D
:102E10001BD0B1FA81F20B3AA41AA41ED2F12003FE
:102E2000914030FA03F31943904001EBCC71002C30
:102E300001EB0451BDE81040A8BF704701F1C0414B
:102E40004FF0000001F000417047B0FA80F310FA33
:102E500003F100D110BDE41A173C4805C90AE4E7A4
:102E600001EB045110BD491001EB0451BDE81040C5
:102E70004FEA300002E04FF0000170474A0008BFFF
:102E80000042F8D0B2F5001F28BF704701F00041A2
:102E90004FF0000070479EEA445F07D011EA5E0FD2
:102EA000BDE8104004BF002100207047BDE810407D
:102EB00070B5FFF7BFFE00BF40DFF63E83F0004174
:102EC000104670470000E0FF43004FEAD30C4FEA82
:102ED0003C0C43401FBF40070CF1605113F0FE4F04
:102EE00070471CF0006F03D100200CF000417047C8
:102EF0000CF0004343EA507010B540EACC0000F0FB
:102F00000EF800BF000000924FEA0001FFF7E0BE9C
:102F10004FF000414FF00000A1F5002170470EF185
:102F2000020E2EF0030E5EF8044B244204D44FEA46
:102F30004102B2F17F4F11D84FEA4003B3F17F4F06
:102F40000CD80ED14FEAD07CB2F17F4F0CEB4C0C79
:102F50000CF1020C08BF4CEBD17C04E04FF0080CE4
:102F600001E04FEAD17C0CEB4C0324FA03F404F0AB
:102F70000704B4F1040C06D20EEB840CBDE810403B
:102F80004CF0010C6047DFE80CF0070802024FF03C
:102F90000040A0F5800010BD0846420018BFD2F1E5
:102FA000807288BF00F0004010BDFF2141EAD05080
:102FB000C00570470000000000000000002F000066
:102FC00000000700070000147F147F1400242A7FEC
:102FD0002A1200626408132300364955225000006B
:102FE0000503000000001C224100000041221C00DB
:102FF0000014083E08140008083E0808000000A05D
:103000006000000808080808000060600000002058
:1030100010080402003E5149453E0000427F400036
:10302000004261514946002141454B3100181412BC
:103030007F10002745454539003C4A494930000189
:103040007109050300364949493600064949291ED8
:10305000000036360000000056360000000814223A
:10306000410000141414141400004122140800023A
:103070000151090600324959513E007C1211127C5F
:10308000007F49494936003E41414122007F41418C
:10309000221C007F49494941007F09090901003E7E
:1030A0004149497A007F0808087F0000417F4100BC
:1030B000002040413F01007F08142241007F404032
:1030C0004040007F020C027F007F0408107F003E1A
:1030D0004141413E007F09090906003E4151215E00
:1030E000007F091929460046494949310001017FFD
:1030F0000101003F4040403F001F2040201F003F93
:103100004038403F00631408146300070870080744
:1031100000615149454300007F41410000552A5557
:103120002A55000041417F000004020102040040D2
:1031300040404040000001020400002054545478F4
:10314000007F484444380038444444200038444414
:10315000487F00385454541800087E0901020018B2
:10316000A4A4A47C007F080404780000447D4000EF
:10317000004080847D00007F102844000000417FD3
:103180004000007C04180478007C080404780038AF
:103190004444443800FC242424180018242418FC37
:1031A000007C0804040800485454542000043F44A0
:1031B0004020003C4040207C001C2040201C003C63
:1031C0004030403C004428102844001CA0A0A07CB3
:1031D000004464544C4414141414141400000000EB
:1031E000000000000000000000000000000000F8E7
:1031F00000000000000000333000000000100C064A
:10320000100C0600000000000000000040C07840E4
:10321000C0784000043F04043F040400007088FCB0
:1032200008300000001820FF211E0000F008F00008
:10323000E018000000211C031E211E0000F0088879
:10324000700000001E2123241927211010160E00E3
:10325000000000000000000000000000000000E08E
:1032600018040200000000071820400000020418A3
:10327000E00000000040201807000000404080F0FF
:10328000804040000202010F01020200000000F035
:10329000000000000101011F010101000000000009
:1032A0000000000080B0700000000000000000007E
:1032B0000000000000010101010101010000000007
:1032C000000000000030300000000000000000009E
:1032D00080601804006018060100000000E010087B
:1032E0000810E000000F102020100F00001010F850
:1032F000000000000020203F20200000007008088F
:10330000088870000030282422213000003008880E
:10331000884830000018202020110E000000C02036
:1033200010F8000000070424243F240000F8088857
:10333000880808000019212020110E0000E01088E4
:1033400088180000000F112020110E000038080816
:10335000C83808000000003F000000000070880826
:1033600008887000001C222121221C0000E01008A7
:103370000810E0000000312222110F00000000C000
:10338000C00000000000003030000000000000809D
:10339000000000000000806000000000000080408D
:1033A00020100800000102040810200040404040A6
:1033B00040404000040404040404040000081020F9
:1033C000408000000020100804020100007048083E
:1033D0000808F0000000003036010000C030C828A6
:1033E000E810E0000718272423140B000000C03861
:1033F000E0000000203C23020227382008F88888DB
:1034000088700000203F202020110E00C0300808E6
:1034100008083800071820202010080008F80808BD
:103420000810E000203F202020100F0008F88888B6
:10343000E8081000203F20202320180008F8888882
:10344000E8081000203F200003000000C0300808FA
:103450000838000007182020221E020008F8080083
:103460000008F808203F210101213F20000808F84A
:10347000080800000020203F20200000000008086D
:10348000F8080800C08080807F00000008F888C02D
:1034900028180800203F20012638200008F80800DE
:1034A00000000000203F20202020300008F8F80015
:1034B000F8F80800203F003F003F200008F830C027
:1034C0000008F808203F200007183F00E010080817
:1034D0000810E0000F10202020100F0008F8080846
:1034E0000808F000203F210101010000E010080859
:1034F0000810E0000F18242438504F0008F888887E
:1035000088887000203F2000030C3020007088085D
:10351000080838000038202121221C00180808F86B
:10352000080818000000203F2000000008F80800EC
:103530000008F808001F202020201F0008788800BD
:1035400000C83808000007380E010000F80800F82D
:103550000008F800033C0700073C030008186880D7
:103560008068180820302C03032C30200838C8004D
:10357000C83808000000203F20000000100808089C
:10358000C83808002038262120201800000000FE3E
:10359000020202000000007F40404000000C30C0EA
:1035A00000000000000000010638C0000002020216
:1035B000FE000000004040407F00000000000402C8
:1035C00002020400000000000000000000000000F3
:1035D00000000000808080808080808000020204E3
:1035E00000000000000000000000000000008080DB
:1035F000808000000019242222223F2008F8008049
:1036000080000000003F112020110E00000000800B
:1036100080800000000E112020201100000000809A
:103620008088F800000E112020103F2000008080CC
:1036300080800000001F222222221300008080F0E0
:10364000888888180020203F20200000000080800B
:1036500080808000006B94949493600008F8008050
:1036600080800000203F210000203F2000809898AB
:10367000000000000020203F20200000000000800B
:103680009898000000C08080807F000008F800004B
:1036900080808000203F24022D302000000808F8A0
:1036A000000000000020203F20200000808080805B
:1036B00080808000203F20003F20003F80800080ED
:1036C00080800000203F210000203F2000008080FB
:1036D00080800000001F202020201F0080800080AC
:1036E0008000000080FFA12020110E00000000805B
:1036F00080808000000E112020A0FF80808080004C
:103700008080800020203F21200001000000808078
:10371000808080000033242424241900008080E06D
:10372000808000000000001F20200000808000003A
:1037300000808000001F202020103F20808080001B
:103740000080808000010E3008060100808000802B
:10375000008080800F300C030C300F000080800050
:10376000808080000020312E0E312000808080007B
:103770000080808080818E7018060100008080802B
:10378000808080000021302C2221300000000000C9
:10379000807C020200000000003F4040000000006A
:1037A000FF00000000000000FF0000000002027C9B
:1037B000800000000040403F0000000000060101C2
:1037C000020204040000000000000000EC370008C2
:1037D00000000020D0040000280100081C3A000866
:1037E000D004002040070000840100081184A24A90
:1037F00004000910010203040607080994AAAAAAF2
:10380000180B100C048414640506F404010311144D
:103810000C780F048484444724140C070C142444AB
:10382000845B9100101102FA8282FE804020504C8D
:10383000434C502040080F1008184884443F40442F
:1038400058414E605847201809100C2424A46425C0
:1038500026061A246701111D40404849011A7F04B9
:103860000C104B484040170434C404C43C1B04FCF7
:10387000BF19080910401E300C030C30A10F1013A3
:103880000C1320408020100920D04C4344C8102045
:1038900022F80214FF19BD154847407005120F4069
:1038A000807F1009109453321E32521006157E424A
:1038B00042427E2AFFC1190109135E100908CC4A51
:1038C00049484ACC180F117F88888482E03E1D1237
:1038D000125292790A157E20212915295C0912DFDE
:1038E000111C080403E559BA0B11010E2138088890
:1038F0004828180FE8080109111F2B0809013AFF91
:1039000006091221163E22E2223E2BFE220103115D
:10391000E20217203F201F11112B7F4401031147A2
:1039200040180D040404F484D4A5A6A4D484F40C93
:103930000112000E14FE0202123A1613121A32423B
:10394000827E49BA0915BF11CA10010910A0080EDC
:103950001030AC63205820F84F4849FA48484217C5
:103960002267221212121AFFDE0D103F222220C0FF
:103970001684E45C44C400091102F2828282FE8053
:10398000803F02017F10103FA505114888403F0885
:103990000F1090523410FF10345280708F0808F8C6
:1039A000801008829A566322528E0F108040330C8A
:1039B0003340601A103E1290080910FE929292F263
:1039C00092929E20100842827F0180601F0713FCA4
:1039D00044474444FC1EFC848484FC4719010412BF
:1039E000FF10101A3F1919B70614010640807F1402
:1039F000F80106000A13F0121212F2020202FE325D
:103A0000FF161F1111111F091541C12D01020304D9
:0C3A10000420090607080902040608004B
:04000005080000ED02
:00000001FF
